{
  "_format": "hh-sol-artifact-1",
  "contractName": "ProofOfScience",
  "sourceName": "contracts/ProofOfScience.sol",
  "abi": [
    {
      "inputs": [],
      "stateMutability": "nonpayable",
      "type": "constructor"
    },
    {
      "inputs": [
        {
          "internalType": "address",
          "name": "sender",
          "type": "address"
        },
        {
          "internalType": "uint256",
          "name": "balance",
          "type": "uint256"
        },
        {
          "internalType": "uint256",
          "name": "needed",
          "type": "uint256"
        },
        {
          "internalType": "uint256",
          "name": "tokenId",
          "type": "uint256"
        }
      ],
      "name": "ERC1155InsufficientBalance",
      "type": "error"
    },
    {
      "inputs": [
        {
          "internalType": "address",
          "name": "approver",
          "type": "address"
        }
      ],
      "name": "ERC1155InvalidApprover",
      "type": "error"
    },
    {
      "inputs": [
        {
          "internalType": "uint256",
          "name": "idsLength",
          "type": "uint256"
        },
        {
          "internalType": "uint256",
          "name": "valuesLength",
          "type": "uint256"
        }
      ],
      "name": "ERC1155InvalidArrayLength",
      "type": "error"
    },
    {
      "inputs": [
        {
          "internalType": "address",
          "name": "operator",
          "type": "address"
        }
      ],
      "name": "ERC1155InvalidOperator",
      "type": "error"
    },
    {
      "inputs": [
        {
          "internalType": "address",
          "name": "receiver",
          "type": "address"
        }
      ],
      "name": "ERC1155InvalidReceiver",
      "type": "error"
    },
    {
      "inputs": [
        {
          "internalType": "address",
          "name": "sender",
          "type": "address"
        }
      ],
      "name": "ERC1155InvalidSender",
      "type": "error"
    },
    {
      "inputs": [
        {
          "internalType": "address",
          "name": "operator",
          "type": "address"
        },
        {
          "internalType": "address",
          "name": "owner",
          "type": "address"
        }
      ],
      "name": "ERC1155MissingApprovalForAll",
      "type": "error"
    },
    {
      "anonymous": false,
      "inputs": [
        {
          "indexed": true,
          "internalType": "address",
          "name": "account",
          "type": "address"
        },
        {
          "indexed": true,
          "internalType": "address",
          "name": "operator",
          "type": "address"
        },
        {
          "indexed": false,
          "internalType": "bool",
          "name": "approved",
          "type": "bool"
        }
      ],
      "name": "ApprovalForAll",
      "type": "event"
    },
    {
      "anonymous": false,
      "inputs": [
        {
          "indexed": true,
          "internalType": "address",
          "name": "operator",
          "type": "address"
        },
        {
          "indexed": true,
          "internalType": "address",
          "name": "from",
          "type": "address"
        },
        {
          "indexed": true,
          "internalType": "address",
          "name": "to",
          "type": "address"
        },
        {
          "indexed": false,
          "internalType": "uint256[]",
          "name": "ids",
          "type": "uint256[]"
        },
        {
          "indexed": false,
          "internalType": "uint256[]",
          "name": "values",
          "type": "uint256[]"
        }
      ],
      "name": "TransferBatch",
      "type": "event"
    },
    {
      "anonymous": false,
      "inputs": [
        {
          "indexed": true,
          "internalType": "address",
          "name": "operator",
          "type": "address"
        },
        {
          "indexed": true,
          "internalType": "address",
          "name": "from",
          "type": "address"
        },
        {
          "indexed": true,
          "internalType": "address",
          "name": "to",
          "type": "address"
        },
        {
          "indexed": false,
          "internalType": "uint256",
          "name": "id",
          "type": "uint256"
        },
        {
          "indexed": false,
          "internalType": "uint256",
          "name": "value",
          "type": "uint256"
        }
      ],
      "name": "TransferSingle",
      "type": "event"
    },
    {
      "anonymous": false,
      "inputs": [
        {
          "indexed": false,
          "internalType": "string",
          "name": "value",
          "type": "string"
        },
        {
          "indexed": true,
          "internalType": "uint256",
          "name": "id",
          "type": "uint256"
        }
      ],
      "name": "URI",
      "type": "event"
    },
    {
      "inputs": [
        {
          "internalType": "address",
          "name": "account",
          "type": "address"
        },
        {
          "internalType": "uint256",
          "name": "id",
          "type": "uint256"
        }
      ],
      "name": "balanceOf",
      "outputs": [
        {
          "internalType": "uint256",
          "name": "",
          "type": "uint256"
        }
      ],
      "stateMutability": "view",
      "type": "function"
    },
    {
      "inputs": [
        {
          "internalType": "address[]",
          "name": "accounts",
          "type": "address[]"
        },
        {
          "internalType": "uint256[]",
          "name": "ids",
          "type": "uint256[]"
        }
      ],
      "name": "balanceOfBatch",
      "outputs": [
        {
          "internalType": "uint256[]",
          "name": "",
          "type": "uint256[]"
        }
      ],
      "stateMutability": "view",
      "type": "function"
    },
    {
      "inputs": [],
      "name": "getLicenseName",
      "outputs": [
        {
          "internalType": "string",
          "name": "",
          "type": "string"
        }
      ],
      "stateMutability": "view",
      "type": "function"
    },
    {
      "inputs": [],
      "name": "getLicenseURI",
      "outputs": [
        {
          "internalType": "string",
          "name": "",
          "type": "string"
        }
      ],
      "stateMutability": "view",
      "type": "function"
    },
    {
      "inputs": [
        {
          "internalType": "address",
          "name": "account",
          "type": "address"
        },
        {
          "internalType": "address",
          "name": "operator",
          "type": "address"
        }
      ],
      "name": "isApprovedForAll",
      "outputs": [
        {
          "internalType": "bool",
          "name": "",
          "type": "bool"
        }
      ],
      "stateMutability": "view",
      "type": "function"
    },
    {
      "inputs": [
        {
          "internalType": "address",
          "name": "account",
          "type": "address"
        },
        {
          "internalType": "string",
          "name": "tokenURI",
          "type": "string"
        }
      ],
      "name": "mint",
      "outputs": [],
      "stateMutability": "nonpayable",
      "type": "function"
    },
    {
      "inputs": [
        {
          "internalType": "address",
          "name": "from",
          "type": "address"
        },
        {
          "internalType": "address",
          "name": "to",
          "type": "address"
        },
        {
          "internalType": "uint256[]",
          "name": "ids",
          "type": "uint256[]"
        },
        {
          "internalType": "uint256[]",
          "name": "values",
          "type": "uint256[]"
        },
        {
          "internalType": "bytes",
          "name": "data",
          "type": "bytes"
        }
      ],
      "name": "safeBatchTransferFrom",
      "outputs": [],
      "stateMutability": "nonpayable",
      "type": "function"
    },
    {
      "inputs": [
        {
          "internalType": "address",
          "name": "from",
          "type": "address"
        },
        {
          "internalType": "address",
          "name": "to",
          "type": "address"
        },
        {
          "internalType": "uint256",
          "name": "id",
          "type": "uint256"
        },
        {
          "internalType": "uint256",
          "name": "value",
          "type": "uint256"
        },
        {
          "internalType": "bytes",
          "name": "data",
          "type": "bytes"
        }
      ],
      "name": "safeTransferFrom",
      "outputs": [],
      "stateMutability": "nonpayable",
      "type": "function"
    },
    {
      "inputs": [
        {
          "internalType": "address",
          "name": "operator",
          "type": "address"
        },
        {
          "internalType": "bool",
          "name": "approved",
          "type": "bool"
        }
      ],
      "name": "setApprovalForAll",
      "outputs": [],
      "stateMutability": "nonpayable",
      "type": "function"
    },
    {
      "inputs": [
        {
          "internalType": "bytes4",
          "name": "interfaceId",
          "type": "bytes4"
        }
      ],
      "name": "supportsInterface",
      "outputs": [
        {
          "internalType": "bool",
          "name": "",
          "type": "bool"
        }
      ],
      "stateMutability": "view",
      "type": "function"
    },
    {
      "inputs": [],
      "name": "tokenID",
      "outputs": [
        {
          "internalType": "uint256",
          "name": "",
          "type": "uint256"
        }
      ],
      "stateMutability": "view",
      "type": "function"
    },
    {
      "inputs": [
        {
          "internalType": "uint256",
          "name": "_id",
          "type": "uint256"
        }
      ],
      "name": "uri",
      "outputs": [
        {
          "internalType": "string",
          "name": "",
          "type": "string"
        }
      ],
      "stateMutability": "view",
      "type": "function"
    }
  ],
  "bytecode": "0x608060405260006004556040518060400160405280600781526020017f697066733a2f2f00000000000000000000000000000000000000000000000000815250600690816200004f9190620003e7565b503480156200005d57600080fd5b506001600680546200006f90620001d6565b80601f01602080910402602001604051908101604052809291908181526020018280546200009d90620001d6565b8015620000ee5780601f10620000c257610100808354040283529160200191620000ee565b820191906000526020600020905b815481529060010190602001808311620000d057829003601f168201915b505050505062000104816200015560201b60201c565b5080600360006101000a81548160ff021916908360058111156200012d576200012c620004ce565b5b0217905550506200014f6732efffab2f99cd5260c01b6200016a60201b60201c565b620004fd565b8060029081620001669190620003e7565b5050565b50565b600081519050919050565b7f4e487b7100000000000000000000000000000000000000000000000000000000600052604160045260246000fd5b7f4e487b7100000000000000000000000000000000000000000000000000000000600052602260045260246000fd5b60006002820490506001821680620001ef57607f821691505b602082108103620002055762000204620001a7565b5b50919050565b60008190508160005260206000209050919050565b60006020601f8301049050919050565b600082821b905092915050565b6000600883026200026f7fffffffffffffffffffffffffffffffffffffffffffffffffffffffffffffffff8262000230565b6200027b868362000230565b95508019841693508086168417925050509392505050565b6000819050919050565b6000819050919050565b6000620002c8620002c2620002bc8462000293565b6200029d565b62000293565b9050919050565b6000819050919050565b620002e483620002a7565b620002fc620002f382620002cf565b8484546200023d565b825550505050565b600090565b6200031362000304565b62000320818484620002d9565b505050565b5b8181101562000348576200033c60008262000309565b60018101905062000326565b5050565b601f821115620003975762000361816200020b565b6200036c8462000220565b810160208510156200037c578190505b620003946200038b8562000220565b83018262000325565b50505b505050565b600082821c905092915050565b6000620003bc600019846008026200039c565b1980831691505092915050565b6000620003d78383620003a9565b9150826002028217905092915050565b620003f2826200016d565b67ffffffffffffffff8111156200040e576200040d62000178565b5b6200041a8254620001d6565b620004278282856200034c565b600060209050601f8311600181146200045f57600084156200044a578287015190505b620004568582620003c9565b865550620004c6565b601f1984166200046f866200020b565b60005b82811015620004995784890151825560018201915060208501945060208101905062000472565b86831015620004b95784890151620004b5601f891682620003a9565b8355505b6001600288020188555050505b505050505050565b7f4e487b7100000000000000000000000000000000000000000000000000000000600052602160045260246000fd5b612c6a806200050d6000396000f3fe608060405234801561001057600080fd5b50600436106100b35760003560e01c8063a341793b11610071578063a341793b146101b0578063a5c42ef1146101ce578063c7db2893146101ec578063d0def5211461020a578063e985e9c514610226578063f242432a14610256576100b3565b8062fdd58e146100b857806301ffc9a7146100e85780630e89341c146101185780632eb2c2d6146101485780634e1273f414610164578063a22cb46514610194575b600080fd5b6100d260048036038101906100cd9190611b6a565b610272565b6040516100df9190611bb9565b60405180910390f35b61010260048036038101906100fd9190611c2c565b6102cc565b60405161010f9190611c74565b60405180910390f35b610132600480360381019061012d9190611c8f565b61031a565b60405161013f9190611d4c565b60405180910390f35b610162600480360381019061015d9190611f6b565b610394565b005b61017e600480360381019061017991906120fd565b61043c565b60405161018b9190612233565b60405180910390f35b6101ae60048036038101906101a99190612281565b61054b565b005b6101b8610561565b6040516101c59190611d4c565b60405180910390f35b6101d6610580565b6040516101e39190611bb9565b60405180910390f35b6101f4610586565b6040516102019190611d4c565b60405180910390f35b610224600480360381019061021f9190612362565b6105f0565b005b610240600480360381019061023b91906123be565b6106ab565b60405161024d9190611c74565b60405180910390f35b610270600480360381019061026b91906123fe565b61073f565b005b600080600083815260200190815260200160002060008473ffffffffffffffffffffffffffffffffffffffff1673ffffffffffffffffffffffffffffffffffffffff16815260200190815260200160002054905092915050565b60006102e2679e7cb9db20112d0860c01b6107e7565b6102f667524b8195e86c317760c01b6107e7565b61030a6758a3278a18b8827260c01b6107e7565b610313826107ea565b9050919050565b60606103306711e449563871f2ef60c01b6107e7565b61034467a0fcd22bdd4ee8e460c01b6107e7565b61035867a004818ba9b85a7f60c01b6107e7565b60066005600084815260200190815260200160002060405160200161037e929190612598565b6040516020818303038152906040529050919050565b600061039e610864565b90508073ffffffffffffffffffffffffffffffffffffffff168673ffffffffffffffffffffffffffffffffffffffff16141580156103e357506103e186826106ab565b155b156104275780866040517fe237d92200000000000000000000000000000000000000000000000000000000815260040161041e9291906125cb565b60405180910390fd5b610434868686868661086c565b505050505050565b6060815183511461048857815183516040517f5b05999100000000000000000000000000000000000000000000000000000000815260040161047f9291906125f4565b60405180910390fd5b6000835167ffffffffffffffff8111156104a5576104a4611d73565b5b6040519080825280602002602001820160405280156104d35781602001602082028036833780820191505090505b50905060005b8451811015610540576105106104f8828761096490919063ffffffff16565b61050b838761097890919063ffffffff16565b610272565b8282815181106105235761052261261d565b5b602002602001018181525050806105399061267b565b90506104d9565b508091505092915050565b61055d610556610864565b838361098c565b5050565b606061057b600360009054906101000a900460ff16610afc565b905090565b60045481565b6060604051806060016040528060318152602001612c04603191396105cb600360009054906101000a900460ff1660058111156105c6576105c56126c3565b5b610d6c565b6040516020016105dc929190612723565b604051602081830303815290604052905090565b610604671012a4c5162a386460c01b6107e7565b610618671660bd4144107ef360c01b6107e7565b61062c6721aef40f982afd5660c01b6107e7565b61064a82600454600160405180602001604052806000815250610e3a565b61065e67478fbaf38bad382360c01b6107e7565b61067267f8ca31689286571460c01b6107e7565b61067e60045482610ed3565b61069267c3aa7e079317e7b160c01b6107e7565b60016004546106a19190612747565b6004819055505050565b6000600160008473ffffffffffffffffffffffffffffffffffffffff1673ffffffffffffffffffffffffffffffffffffffff16815260200190815260200160002060008373ffffffffffffffffffffffffffffffffffffffff1673ffffffffffffffffffffffffffffffffffffffff16815260200190815260200160002060009054906101000a900460ff16905092915050565b6000610749610864565b90508073ffffffffffffffffffffffffffffffffffffffff168673ffffffffffffffffffffffffffffffffffffffff161415801561078e575061078c86826106ab565b155b156107d25780866040517fe237d9220000000000000000000000000000000000000000000000000000000081526004016107c99291906125cb565b60405180910390fd5b6107df8686868686610f20565b505050505050565b50565b60007f649a51a8000000000000000000000000000000000000000000000000000000007bffffffffffffffffffffffffffffffffffffffffffffffffffffffff1916827bffffffffffffffffffffffffffffffffffffffffffffffffffffffff1916148061085d575061085c8261102b565b5b9050919050565b600033905090565b600073ffffffffffffffffffffffffffffffffffffffff168473ffffffffffffffffffffffffffffffffffffffff16036108de5760006040517f57f447ce0000000000000000000000000000000000000000000000000000000081526004016108d5919061277b565b60405180910390fd5b600073ffffffffffffffffffffffffffffffffffffffff168573ffffffffffffffffffffffffffffffffffffffff16036109505760006040517f01a83514000000000000000000000000000000000000000000000000000000008152600401610947919061277b565b60405180910390fd5b61095d858585858561110d565b5050505050565b600060208202602084010151905092915050565b600060208202602084010151905092915050565b600073ffffffffffffffffffffffffffffffffffffffff168273ffffffffffffffffffffffffffffffffffffffff16036109fe5760006040517fced3e1000000000000000000000000000000000000000000000000000000000081526004016109f5919061277b565b60405180910390fd5b80600160008573ffffffffffffffffffffffffffffffffffffffff1673ffffffffffffffffffffffffffffffffffffffff16815260200190815260200160002060008473ffffffffffffffffffffffffffffffffffffffff1673ffffffffffffffffffffffffffffffffffffffff16815260200190815260200160002060006101000a81548160ff0219169083151502179055508173ffffffffffffffffffffffffffffffffffffffff168373ffffffffffffffffffffffffffffffffffffffff167f17307eab39ab6107e8899845ad3d59bd9653f200f220920489ca2b5937696c3183604051610aef9190611c74565b60405180910390a3505050565b60606006826005811115610b1357610b126126c3565b5b60ff161115610b2157600080fd5b816005811115610b3457610b336126c3565b5b60006005811115610b4857610b476126c3565b5b03610b8a576040518060400160405280600681526020017f5055424c494300000000000000000000000000000000000000000000000000008152509050610d67565b816005811115610b9d57610b9c6126c3565b5b60016005811115610bb157610bb06126c3565b5b03610bf3576040518060400160405280600981526020017f4558434c555349564500000000000000000000000000000000000000000000008152509050610d67565b816005811115610c0657610c056126c3565b5b60026005811115610c1a57610c196126c3565b5b03610c5c576040518060400160405280600a81526020017f434f4d4d45524349414c000000000000000000000000000000000000000000008152509050610d67565b816005811115610c6f57610c6e6126c3565b5b60036005811115610c8357610c826126c3565b5b03610cc5576040518060400160405280601281526020017f434f4d4d45524349414c5f4e4f5f4841544500000000000000000000000000008152509050610d67565b816005811115610cd857610cd76126c3565b5b60046005811115610cec57610ceb6126c3565b5b03610d2e576040518060400160405280600881526020017f504552534f4e414c0000000000000000000000000000000000000000000000008152509050610d67565b6040518060400160405280601081526020017f504552534f4e414c5f4e4f5f484154450000000000000000000000000000000081525090505b919050565b606060006001610d7b846111bf565b01905060008167ffffffffffffffff811115610d9a57610d99611d73565b5b6040519080825280601f01601f191660200182016040528015610dcc5781602001600182028036833780820191505090505b509050600082602001820190505b600115610e2f578080600190039150507f3031323334353637383961626364656600000000000000000000000000000000600a86061a8153600a8581610e2357610e22612796565b5b04945060008503610dda575b819350505050919050565b600073ffffffffffffffffffffffffffffffffffffffff168473ffffffffffffffffffffffffffffffffffffffff1603610eac5760006040517f57f447ce000000000000000000000000000000000000000000000000000000008152600401610ea3919061277b565b60405180910390fd5b600080610eb98585611312565b91509150610ecb60008784848761110d565b505050505050565b610ee7677d164490fe644d0260c01b6107e7565b610efb673533bcbda711554660c01b6107e7565b80600560008481526020019081526020016000209081610f1b919061295c565b505050565b600073ffffffffffffffffffffffffffffffffffffffff168473ffffffffffffffffffffffffffffffffffffffff1603610f925760006040517f57f447ce000000000000000000000000000000000000000000000000000000008152600401610f89919061277b565b60405180910390fd5b600073ffffffffffffffffffffffffffffffffffffffff168573ffffffffffffffffffffffffffffffffffffffff16036110045760006040517f01a83514000000000000000000000000000000000000000000000000000000008152600401610ffb919061277b565b60405180910390fd5b6000806110118585611312565b91509150611022878784848761110d565b50505050505050565b60007fd9b67a26000000000000000000000000000000000000000000000000000000007bffffffffffffffffffffffffffffffffffffffffffffffffffffffff1916827bffffffffffffffffffffffffffffffffffffffffffffffffffffffff191614806110f657507f0e89341c000000000000000000000000000000000000000000000000000000007bffffffffffffffffffffffffffffffffffffffffffffffffffffffff1916827bffffffffffffffffffffffffffffffffffffffffffffffffffffffff1916145b80611106575061110582611342565b5b9050919050565b611119858585856113ac565b600073ffffffffffffffffffffffffffffffffffffffff168473ffffffffffffffffffffffffffffffffffffffff16146111b8576000611157610864565b905060018451036111a757600061117860008661097890919063ffffffff16565b9050600061119060008661097890919063ffffffff16565b90506111a083898985858961175a565b50506111b6565b6111b581878787878761190e565b5b505b5050505050565b600080600090507a184f03e93ff9f4daa797ed6e38ed64bf6a1f010000000000000000831061121d577a184f03e93ff9f4daa797ed6e38ed64bf6a1f010000000000000000838161121357611212612796565b5b0492506040810190505b6d04ee2d6d415b85acef8100000000831061125a576d04ee2d6d415b85acef810000000083816112505761124f612796565b5b0492506020810190505b662386f26fc10000831061128957662386f26fc10000838161127f5761127e612796565b5b0492506010810190505b6305f5e10083106112b2576305f5e10083816112a8576112a7612796565b5b0492506008810190505b61271083106112d75761271083816112cd576112cc612796565b5b0492506004810190505b606483106112fa57606483816112f0576112ef612796565b5b0492506002810190505b600a8310611309576001810190505b80915050919050565b60608060405191506001825283602083015260408201905060018152826020820152604081016040529250929050565b60007f01ffc9a7000000000000000000000000000000000000000000000000000000007bffffffffffffffffffffffffffffffffffffffffffffffffffffffff1916827bffffffffffffffffffffffffffffffffffffffffffffffffffffffff1916149050919050565b80518251146113f657815181516040517f5b0599910000000000000000000000000000000000000000000000000000000081526004016113ed9291906125f4565b60405180910390fd5b6000611400610864565b905060005b8351811015611615576000611423828661097890919063ffffffff16565b9050600061143a838661097890919063ffffffff16565b9050600073ffffffffffffffffffffffffffffffffffffffff168873ffffffffffffffffffffffffffffffffffffffff161461156757600080600084815260200190815260200160002060008a73ffffffffffffffffffffffffffffffffffffffff1673ffffffffffffffffffffffffffffffffffffffff1681526020019081526020016000205490508181101561150f57888183856040517f03dee4c50000000000000000000000000000000000000000000000000000000081526004016115069493929190612a2e565b60405180910390fd5b81810360008085815260200190815260200160002060008b73ffffffffffffffffffffffffffffffffffffffff1673ffffffffffffffffffffffffffffffffffffffff16815260200190815260200160002081905550505b600073ffffffffffffffffffffffffffffffffffffffff168773ffffffffffffffffffffffffffffffffffffffff1614611602578060008084815260200190815260200160002060008973ffffffffffffffffffffffffffffffffffffffff1673ffffffffffffffffffffffffffffffffffffffff16815260200190815260200160002060008282546115fa9190612747565b925050819055505b50508061160e9061267b565b9050611405565b5060018351036116d457600061163560008561097890919063ffffffff16565b9050600061164d60008561097890919063ffffffff16565b90508573ffffffffffffffffffffffffffffffffffffffff168773ffffffffffffffffffffffffffffffffffffffff168473ffffffffffffffffffffffffffffffffffffffff167fc3d58168c5ae7397731d063d5bbf3d657854427343f4c083240f7aacaa2d0f6285856040516116c59291906125f4565b60405180910390a45050611753565b8373ffffffffffffffffffffffffffffffffffffffff168573ffffffffffffffffffffffffffffffffffffffff168273ffffffffffffffffffffffffffffffffffffffff167f4a39dc06d4c0dbc64b70af90fd698a233a518aa5d07e595d983b8c0526c8f7fb868660405161174a929190612a73565b60405180910390a45b5050505050565b60008473ffffffffffffffffffffffffffffffffffffffff163b1115611906578373ffffffffffffffffffffffffffffffffffffffff1663f23a6e6187878686866040518663ffffffff1660e01b81526004016117bb959493929190612aff565b6020604051808303816000875af19250505080156117f757506040513d601f19601f820116820180604052508101906117f49190612b6e565b60015b61187b573d8060008114611827576040519150601f19603f3d011682016040523d82523d6000602084013e61182c565b606091505b50600081510361187357846040517f57f447ce00000000000000000000000000000000000000000000000000000000815260040161186a919061277b565b60405180910390fd5b805181602001fd5b63f23a6e6160e01b7bffffffffffffffffffffffffffffffffffffffffffffffffffffffff1916817bffffffffffffffffffffffffffffffffffffffffffffffffffffffff19161461190457846040517f57f447ce0000000000000000000000000000000000000000000000000000000081526004016118fb919061277b565b60405180910390fd5b505b505050505050565b60008473ffffffffffffffffffffffffffffffffffffffff163b1115611aba578373ffffffffffffffffffffffffffffffffffffffff1663bc197c8187878686866040518663ffffffff1660e01b815260040161196f959493929190612b9b565b6020604051808303816000875af19250505080156119ab57506040513d601f19601f820116820180604052508101906119a89190612b6e565b60015b611a2f573d80600081146119db576040519150601f19603f3d011682016040523d82523d6000602084013e6119e0565b606091505b506000815103611a2757846040517f57f447ce000000000000000000000000000000000000000000000000000000008152600401611a1e919061277b565b60405180910390fd5b805181602001fd5b63bc197c8160e01b7bffffffffffffffffffffffffffffffffffffffffffffffffffffffff1916817bffffffffffffffffffffffffffffffffffffffffffffffffffffffff191614611ab857846040517f57f447ce000000000000000000000000000000000000000000000000000000008152600401611aaf919061277b565b60405180910390fd5b505b505050505050565b6000604051905090565b600080fd5b600080fd5b600073ffffffffffffffffffffffffffffffffffffffff82169050919050565b6000611b0182611ad6565b9050919050565b611b1181611af6565b8114611b1c57600080fd5b50565b600081359050611b2e81611b08565b92915050565b6000819050919050565b611b4781611b34565b8114611b5257600080fd5b50565b600081359050611b6481611b3e565b92915050565b60008060408385031215611b8157611b80611acc565b5b6000611b8f85828601611b1f565b9250506020611ba085828601611b55565b9150509250929050565b611bb381611b34565b82525050565b6000602082019050611bce6000830184611baa565b92915050565b60007fffffffff0000000000000000000000000000000000000000000000000000000082169050919050565b611c0981611bd4565b8114611c1457600080fd5b50565b600081359050611c2681611c00565b92915050565b600060208284031215611c4257611c41611acc565b5b6000611c5084828501611c17565b91505092915050565b60008115159050919050565b611c6e81611c59565b82525050565b6000602082019050611c896000830184611c65565b92915050565b600060208284031215611ca557611ca4611acc565b5b6000611cb384828501611b55565b91505092915050565b600081519050919050565b600082825260208201905092915050565b60005b83811015611cf6578082015181840152602081019050611cdb565b60008484015250505050565b6000601f19601f8301169050919050565b6000611d1e82611cbc565b611d288185611cc7565b9350611d38818560208601611cd8565b611d4181611d02565b840191505092915050565b60006020820190508181036000830152611d668184611d13565b905092915050565b600080fd5b7f4e487b7100000000000000000000000000000000000000000000000000000000600052604160045260246000fd5b611dab82611d02565b810181811067ffffffffffffffff82111715611dca57611dc9611d73565b5b80604052505050565b6000611ddd611ac2565b9050611de98282611da2565b919050565b600067ffffffffffffffff821115611e0957611e08611d73565b5b602082029050602081019050919050565b600080fd5b6000611e32611e2d84611dee565b611dd3565b90508083825260208201905060208402830185811115611e5557611e54611e1a565b5b835b81811015611e7e5780611e6a8882611b55565b845260208401935050602081019050611e57565b5050509392505050565b600082601f830112611e9d57611e9c611d6e565b5b8135611ead848260208601611e1f565b91505092915050565b600080fd5b600067ffffffffffffffff821115611ed657611ed5611d73565b5b611edf82611d02565b9050602081019050919050565b82818337600083830152505050565b6000611f0e611f0984611ebb565b611dd3565b905082815260208101848484011115611f2a57611f29611eb6565b5b611f35848285611eec565b509392505050565b600082601f830112611f5257611f51611d6e565b5b8135611f62848260208601611efb565b91505092915050565b600080600080600060a08688031215611f8757611f86611acc565b5b6000611f9588828901611b1f565b9550506020611fa688828901611b1f565b945050604086013567ffffffffffffffff811115611fc757611fc6611ad1565b5b611fd388828901611e88565b935050606086013567ffffffffffffffff811115611ff457611ff3611ad1565b5b61200088828901611e88565b925050608086013567ffffffffffffffff81111561202157612020611ad1565b5b61202d88828901611f3d565b9150509295509295909350565b600067ffffffffffffffff82111561205557612054611d73565b5b602082029050602081019050919050565b60006120796120748461203a565b611dd3565b9050808382526020820190506020840283018581111561209c5761209b611e1a565b5b835b818110156120c557806120b18882611b1f565b84526020840193505060208101905061209e565b5050509392505050565b600082601f8301126120e4576120e3611d6e565b5b81356120f4848260208601612066565b91505092915050565b6000806040838503121561211457612113611acc565b5b600083013567ffffffffffffffff81111561213257612131611ad1565b5b61213e858286016120cf565b925050602083013567ffffffffffffffff81111561215f5761215e611ad1565b5b61216b85828601611e88565b9150509250929050565b600081519050919050565b600082825260208201905092915050565b6000819050602082019050919050565b6121aa81611b34565b82525050565b60006121bc83836121a1565b60208301905092915050565b6000602082019050919050565b60006121e082612175565b6121ea8185612180565b93506121f583612191565b8060005b8381101561222657815161220d88826121b0565b9750612218836121c8565b9250506001810190506121f9565b5085935050505092915050565b6000602082019050818103600083015261224d81846121d5565b905092915050565b61225e81611c59565b811461226957600080fd5b50565b60008135905061227b81612255565b92915050565b6000806040838503121561229857612297611acc565b5b60006122a685828601611b1f565b92505060206122b78582860161226c565b9150509250929050565b600067ffffffffffffffff8211156122dc576122db611d73565b5b6122e582611d02565b9050602081019050919050565b6000612305612300846122c1565b611dd3565b90508281526020810184848401111561232157612320611eb6565b5b61232c848285611eec565b509392505050565b600082601f83011261234957612348611d6e565b5b81356123598482602086016122f2565b91505092915050565b6000806040838503121561237957612378611acc565b5b600061238785828601611b1f565b925050602083013567ffffffffffffffff8111156123a8576123a7611ad1565b5b6123b485828601612334565b9150509250929050565b600080604083850312156123d5576123d4611acc565b5b60006123e385828601611b1f565b92505060206123f485828601611b1f565b9150509250929050565b600080600080600060a0868803121561241a57612419611acc565b5b600061242888828901611b1f565b955050602061243988828901611b1f565b945050604061244a88828901611b55565b935050606061245b88828901611b55565b925050608086013567ffffffffffffffff81111561247c5761247b611ad1565b5b61248888828901611f3d565b9150509295509295909350565b7f4e487b7100000000000000000000000000000000000000000000000000000000600052602260045260246000fd5b600060028204905060018216806124dc57607f821691505b6020821081036124ef576124ee612495565b5b50919050565b600081905092915050565b60008190508160005260206000209050919050565b60008154612522816124c4565b61252c81866124f5565b94506001821660008114612547576001811461255c5761258f565b60ff198316865281151582028601935061258f565b61256585612500565b60005b8381101561258757815481890152600182019150602081019050612568565b838801955050505b50505092915050565b60006125a48285612515565b91506125b08284612515565b91508190509392505050565b6125c581611af6565b82525050565b60006040820190506125e060008301856125bc565b6125ed60208301846125bc565b9392505050565b60006040820190506126096000830185611baa565b6126166020830184611baa565b9392505050565b7f4e487b7100000000000000000000000000000000000000000000000000000000600052603260045260246000fd5b7f4e487b7100000000000000000000000000000000000000000000000000000000600052601160045260246000fd5b600061268682611b34565b91507fffffffffffffffffffffffffffffffffffffffffffffffffffffffffffffffff82036126b8576126b761264c565b5b600182019050919050565b7f4e487b7100000000000000000000000000000000000000000000000000000000600052602160045260246000fd5b60006126fd82611cbc565b61270781856124f5565b9350612717818560208601611cd8565b80840191505092915050565b600061272f82856126f2565b915061273b82846126f2565b91508190509392505050565b600061275282611b34565b915061275d83611b34565b92508282019050808211156127755761277461264c565b5b92915050565b600060208201905061279060008301846125bc565b92915050565b7f4e487b7100000000000000000000000000000000000000000000000000000000600052601260045260246000fd5b60006020601f8301049050919050565b600082821b905092915050565b6000600883026128127fffffffffffffffffffffffffffffffffffffffffffffffffffffffffffffffff826127d5565b61281c86836127d5565b95508019841693508086168417925050509392505050565b6000819050919050565b600061285961285461284f84611b34565b612834565b611b34565b9050919050565b6000819050919050565b6128738361283e565b61288761287f82612860565b8484546127e2565b825550505050565b600090565b61289c61288f565b6128a781848461286a565b505050565b5b818110156128cb576128c0600082612894565b6001810190506128ad565b5050565b601f821115612910576128e181612500565b6128ea846127c5565b810160208510156128f9578190505b61290d612905856127c5565b8301826128ac565b50505b505050565b600082821c905092915050565b600061293360001984600802612915565b1980831691505092915050565b600061294c8383612922565b9150826002028217905092915050565b61296582611cbc565b67ffffffffffffffff81111561297e5761297d611d73565b5b61298882546124c4565b6129938282856128cf565b600060209050601f8311600181146129c657600084156129b4578287015190505b6129be8582612940565b865550612a26565b601f1984166129d486612500565b60005b828110156129fc578489015182556001820191506020850194506020810190506129d7565b86831015612a195784890151612a15601f891682612922565b8355505b6001600288020188555050505b505050505050565b6000608082019050612a4360008301876125bc565b612a506020830186611baa565b612a5d6040830185611baa565b612a6a6060830184611baa565b95945050505050565b60006040820190508181036000830152612a8d81856121d5565b90508181036020830152612aa181846121d5565b90509392505050565b600081519050919050565b600082825260208201905092915050565b6000612ad182612aaa565b612adb8185612ab5565b9350612aeb818560208601611cd8565b612af481611d02565b840191505092915050565b600060a082019050612b1460008301886125bc565b612b2160208301876125bc565b612b2e6040830186611baa565b612b3b6060830185611baa565b8181036080830152612b4d8184612ac6565b90509695505050505050565b600081519050612b6881611c00565b92915050565b600060208284031215612b8457612b83611acc565b5b6000612b9284828501612b59565b91505092915050565b600060a082019050612bb060008301886125bc565b612bbd60208301876125bc565b8181036040830152612bcf81866121d5565b90508181036060830152612be381856121d5565b90508181036080830152612bf78184612ac6565b9050969550505050505056fe61723a2f2f7a6d63315754737049684679565938326277664149634945784c4648356c55634848554e307758673457382fa26469706673582212204e8f568ffcae6eb29fbe3de4642ead94d957602b2ac6d4b585f85900903a670b64736f6c63430008140033",
  "linkReferences": {},
  "deployedLinkReferences": {}
}