{
  "_format": "hh-sol-artifact-1",
  "contractName": "ProofOfScience",
  "sourceName": "contracts/ProofOfScience.sol",
  "abi": [
    {
      "inputs": [],
      "stateMutability": "nonpayable",
      "type": "constructor"
    },
    {
      "anonymous": false,
      "inputs": [
        {
          "indexed": true,
          "internalType": "address",
          "name": "account",
          "type": "address"
        },
        {
          "indexed": true,
          "internalType": "address",
          "name": "operator",
          "type": "address"
        },
        {
          "indexed": false,
          "internalType": "bool",
          "name": "approved",
          "type": "bool"
        }
      ],
      "name": "ApprovalForAll",
      "type": "event"
    },
    {
      "anonymous": false,
      "inputs": [
        {
          "indexed": true,
          "internalType": "address",
          "name": "previousOwner",
          "type": "address"
        },
        {
          "indexed": true,
          "internalType": "address",
          "name": "newOwner",
          "type": "address"
        }
      ],
      "name": "OwnershipTransferred",
      "type": "event"
    },
    {
      "anonymous": false,
      "inputs": [
        {
          "indexed": true,
          "internalType": "address",
          "name": "operator",
          "type": "address"
        },
        {
          "indexed": true,
          "internalType": "address",
          "name": "from",
          "type": "address"
        },
        {
          "indexed": true,
          "internalType": "address",
          "name": "to",
          "type": "address"
        },
        {
          "indexed": false,
          "internalType": "uint256[]",
          "name": "ids",
          "type": "uint256[]"
        },
        {
          "indexed": false,
          "internalType": "uint256[]",
          "name": "values",
          "type": "uint256[]"
        }
      ],
      "name": "TransferBatch",
      "type": "event"
    },
    {
      "anonymous": false,
      "inputs": [
        {
          "indexed": true,
          "internalType": "address",
          "name": "operator",
          "type": "address"
        },
        {
          "indexed": true,
          "internalType": "address",
          "name": "from",
          "type": "address"
        },
        {
          "indexed": true,
          "internalType": "address",
          "name": "to",
          "type": "address"
        },
        {
          "indexed": false,
          "internalType": "uint256",
          "name": "id",
          "type": "uint256"
        },
        {
          "indexed": false,
          "internalType": "uint256",
          "name": "value",
          "type": "uint256"
        }
      ],
      "name": "TransferSingle",
      "type": "event"
    },
    {
      "anonymous": false,
      "inputs": [
        {
          "indexed": false,
          "internalType": "string",
          "name": "value",
          "type": "string"
        },
        {
          "indexed": true,
          "internalType": "uint256",
          "name": "id",
          "type": "uint256"
        }
      ],
      "name": "URI",
      "type": "event"
    },
    {
      "inputs": [
        {
          "internalType": "address",
          "name": "account",
          "type": "address"
        },
        {
          "internalType": "uint256",
          "name": "id",
          "type": "uint256"
        }
      ],
      "name": "balanceOf",
      "outputs": [
        {
          "internalType": "uint256",
          "name": "",
          "type": "uint256"
        }
      ],
      "stateMutability": "view",
      "type": "function"
    },
    {
      "inputs": [
        {
          "internalType": "address[]",
          "name": "accounts",
          "type": "address[]"
        },
        {
          "internalType": "uint256[]",
          "name": "ids",
          "type": "uint256[]"
        }
      ],
      "name": "balanceOfBatch",
      "outputs": [
        {
          "internalType": "uint256[]",
          "name": "",
          "type": "uint256[]"
        }
      ],
      "stateMutability": "view",
      "type": "function"
    },
    {
      "inputs": [
        {
          "internalType": "address",
          "name": "account",
          "type": "address"
        },
        {
          "internalType": "address",
          "name": "operator",
          "type": "address"
        }
      ],
      "name": "isApprovedForAll",
      "outputs": [
        {
          "internalType": "bool",
          "name": "",
          "type": "bool"
        }
      ],
      "stateMutability": "view",
      "type": "function"
    },
    {
      "inputs": [
        {
          "internalType": "address",
          "name": "account",
          "type": "address"
        },
        {
          "internalType": "string",
          "name": "tokenURI",
          "type": "string"
        }
      ],
      "name": "mint",
      "outputs": [],
      "stateMutability": "nonpayable",
      "type": "function"
    },
    {
      "inputs": [],
      "name": "owner",
      "outputs": [
        {
          "internalType": "address",
          "name": "",
          "type": "address"
        }
      ],
      "stateMutability": "view",
      "type": "function"
    },
    {
      "inputs": [],
      "name": "renounceOwnership",
      "outputs": [],
      "stateMutability": "nonpayable",
      "type": "function"
    },
    {
      "inputs": [
        {
          "internalType": "address",
          "name": "from",
          "type": "address"
        },
        {
          "internalType": "address",
          "name": "to",
          "type": "address"
        },
        {
          "internalType": "uint256[]",
          "name": "ids",
          "type": "uint256[]"
        },
        {
          "internalType": "uint256[]",
          "name": "amounts",
          "type": "uint256[]"
        },
        {
          "internalType": "bytes",
          "name": "data",
          "type": "bytes"
        }
      ],
      "name": "safeBatchTransferFrom",
      "outputs": [],
      "stateMutability": "nonpayable",
      "type": "function"
    },
    {
      "inputs": [
        {
          "internalType": "address",
          "name": "from",
          "type": "address"
        },
        {
          "internalType": "address",
          "name": "to",
          "type": "address"
        },
        {
          "internalType": "uint256",
          "name": "id",
          "type": "uint256"
        },
        {
          "internalType": "uint256",
          "name": "amount",
          "type": "uint256"
        },
        {
          "internalType": "bytes",
          "name": "data",
          "type": "bytes"
        }
      ],
      "name": "safeTransferFrom",
      "outputs": [],
      "stateMutability": "nonpayable",
      "type": "function"
    },
    {
      "inputs": [
        {
          "internalType": "address",
          "name": "operator",
          "type": "address"
        },
        {
          "internalType": "bool",
          "name": "approved",
          "type": "bool"
        }
      ],
      "name": "setApprovalForAll",
      "outputs": [],
      "stateMutability": "nonpayable",
      "type": "function"
    },
    {
      "inputs": [
        {
          "internalType": "bytes4",
          "name": "interfaceId",
          "type": "bytes4"
        }
      ],
      "name": "supportsInterface",
      "outputs": [
        {
          "internalType": "bool",
          "name": "",
          "type": "bool"
        }
      ],
      "stateMutability": "view",
      "type": "function"
    },
    {
      "inputs": [],
      "name": "tokenID",
      "outputs": [
        {
          "internalType": "uint256",
          "name": "",
          "type": "uint256"
        }
      ],
      "stateMutability": "view",
      "type": "function"
    },
    {
      "inputs": [
        {
          "internalType": "address",
          "name": "newOwner",
          "type": "address"
        }
      ],
      "name": "transferContractOwnership",
      "outputs": [],
      "stateMutability": "nonpayable",
      "type": "function"
    },
    {
      "inputs": [
        {
          "internalType": "address",
          "name": "newOwner",
          "type": "address"
        }
      ],
      "name": "transferOwnership",
      "outputs": [],
      "stateMutability": "nonpayable",
      "type": "function"
    },
    {
      "inputs": [
        {
          "internalType": "uint256",
          "name": "_id",
          "type": "uint256"
        }
      ],
      "name": "uri",
      "outputs": [
        {
          "internalType": "string",
          "name": "",
          "type": "string"
        }
      ],
      "stateMutability": "view",
      "type": "function"
    }
  ],
  "bytecode": "0x608060405260006004556040518060400160405280600781526020017f697066733a2f2f00000000000000000000000000000000000000000000000000815250600690816200004f919062000486565b503480156200005d57600080fd5b50600680546200006d9062000275565b80601f01602080910402602001604051908101604052809291908181526020018280546200009b9062000275565b8015620000ec5780601f10620000c057610100808354040283529160200191620000ec565b820191906000526020600020905b815481529060010190602001808311620000ce57829003601f168201915b505050505062000102816200012960201b60201c565b5062000123620001176200013e60201b60201c565b6200014660201b60201c565b6200056d565b80600290816200013a919062000486565b5050565b600033905090565b6000600360009054906101000a900473ffffffffffffffffffffffffffffffffffffffff16905081600360006101000a81548173ffffffffffffffffffffffffffffffffffffffff021916908373ffffffffffffffffffffffffffffffffffffffff1602179055508173ffffffffffffffffffffffffffffffffffffffff168173ffffffffffffffffffffffffffffffffffffffff167f8be0079c531659141344cd1fd0a4f28419497f9722a3daafe3b4186f6b6457e060405160405180910390a35050565b600081519050919050565b7f4e487b7100000000000000000000000000000000000000000000000000000000600052604160045260246000fd5b7f4e487b7100000000000000000000000000000000000000000000000000000000600052602260045260246000fd5b600060028204905060018216806200028e57607f821691505b602082108103620002a457620002a362000246565b5b50919050565b60008190508160005260206000209050919050565b60006020601f8301049050919050565b600082821b905092915050565b6000600883026200030e7fffffffffffffffffffffffffffffffffffffffffffffffffffffffffffffffff82620002cf565b6200031a8683620002cf565b95508019841693508086168417925050509392505050565b6000819050919050565b6000819050919050565b600062000367620003616200035b8462000332565b6200033c565b62000332565b9050919050565b6000819050919050565b620003838362000346565b6200039b62000392826200036e565b848454620002dc565b825550505050565b600090565b620003b2620003a3565b620003bf81848462000378565b505050565b5b81811015620003e757620003db600082620003a8565b600181019050620003c5565b5050565b601f82111562000436576200040081620002aa565b6200040b84620002bf565b810160208510156200041b578190505b620004336200042a85620002bf565b830182620003c4565b50505b505050565b600082821c905092915050565b60006200045b600019846008026200043b565b1980831691505092915050565b600062000476838362000448565b9150826002028217905092915050565b62000491826200020c565b67ffffffffffffffff811115620004ad57620004ac62000217565b5b620004b9825462000275565b620004c6828285620003eb565b600060209050601f831160018114620004fe5760008415620004e9578287015190505b620004f5858262000468565b86555062000565565b601f1984166200050e86620002aa565b60005b82811015620005385784890151825560018201915060208501945060208101905062000511565b8683101562000558578489015162000554601f89168262000448565b8355505b6001600288020188555050505b505050505050565b612fe1806200057d6000396000f3fe608060405234801561001057600080fd5b50600436106100e95760003560e01c8063a22cb4651161008c578063d0def52111610066578063d0def52114610248578063e985e9c514610264578063f242432a14610294578063f2fde38b146102b0576100e9565b8063a22cb465146101f2578063a5c42ef11461020e578063a843c51f1461022c576100e9565b80632eb2c2d6116100c85780632eb2c2d61461017e5780634e1273f41461019a578063715018a6146101ca5780638da5cb5b146101d4576100e9565b8062fdd58e146100ee57806301ffc9a71461011e5780630e89341c1461014e575b600080fd5b61010860048036038101906101039190611895565b6102cc565b60405161011591906118e4565b60405180910390f35b61013860048036038101906101339190611957565b610394565b604051610145919061199f565b60405180910390f35b610168600480360381019061016391906119ba565b610476565b6040516101759190611a77565b60405180910390f35b61019860048036038101906101939190611c96565b6104b4565b005b6101b460048036038101906101af9190611e28565b610555565b6040516101c19190611f5e565b60405180910390f35b6101d261066e565b005b6101dc610682565b6040516101e99190611f8f565b60405180910390f35b61020c60048036038101906102079190611fd6565b6106ac565b005b6102166106c2565b60405161022391906118e4565b60405180910390f35b61024660048036038101906102419190612016565b6106c8565b005b610262600480360381019061025d91906120e4565b6106dc565b005b61027e60048036038101906102799190612140565b610727565b60405161028b919061199f565b60405180910390f35b6102ae60048036038101906102a99190612180565b6107bb565b005b6102ca60048036038101906102c59190612016565b61085c565b005b60008073ffffffffffffffffffffffffffffffffffffffff168373ffffffffffffffffffffffffffffffffffffffff160361033c576040517f08c379a000000000000000000000000000000000000000000000000000000000815260040161033390612289565b60405180910390fd5b60008083815260200190815260200160002060008473ffffffffffffffffffffffffffffffffffffffff1673ffffffffffffffffffffffffffffffffffffffff16815260200190815260200160002054905092915050565b60007fd9b67a26000000000000000000000000000000000000000000000000000000007bffffffffffffffffffffffffffffffffffffffffffffffffffffffff1916827bffffffffffffffffffffffffffffffffffffffffffffffffffffffff1916148061045f57507f0e89341c000000000000000000000000000000000000000000000000000000007bffffffffffffffffffffffffffffffffffffffffffffffffffffffff1916827bffffffffffffffffffffffffffffffffffffffffffffffffffffffff1916145b8061046f575061046e826108df565b5b9050919050565b606060066005600084815260200190815260200160002060405160200161049e9291906123ac565b6040516020818303038152906040529050919050565b6104bc610949565b73ffffffffffffffffffffffffffffffffffffffff168573ffffffffffffffffffffffffffffffffffffffff1614806105025750610501856104fc610949565b610727565b5b610541576040517f08c379a000000000000000000000000000000000000000000000000000000000815260040161053890612442565b60405180910390fd5b61054e8585858585610951565b5050505050565b6060815183511461059b576040517f08c379a0000000000000000000000000000000000000000000000000000000008152600401610592906124d4565b60405180910390fd5b6000835167ffffffffffffffff8111156105b8576105b7611a9e565b5b6040519080825280602002602001820160405280156105e65781602001602082028036833780820191505090505b50905060005b84518110156106635761063385828151811061060b5761060a6124f4565b5b6020026020010151858381518110610626576106256124f4565b5b60200260200101516102cc565b828281518110610646576106456124f4565b5b6020026020010181815250508061065c90612552565b90506105ec565b508091505092915050565b610676610c72565b6106806000610cf0565b565b6000600360009054906101000a900473ffffffffffffffffffffffffffffffffffffffff16905090565b6106be6106b7610949565b8383610db6565b5050565b60045481565b6106d0610c72565b6106d98161085c565b50565b6106e4610c72565b61070282600454600160405180602001604052806000815250610f22565b61070e600454826110d2565b600160045461071d919061259a565b6004819055505050565b6000600160008473ffffffffffffffffffffffffffffffffffffffff1673ffffffffffffffffffffffffffffffffffffffff16815260200190815260200160002060008373ffffffffffffffffffffffffffffffffffffffff1673ffffffffffffffffffffffffffffffffffffffff16815260200190815260200160002060009054906101000a900460ff16905092915050565b6107c3610949565b73ffffffffffffffffffffffffffffffffffffffff168573ffffffffffffffffffffffffffffffffffffffff161480610809575061080885610803610949565b610727565b5b610848576040517f08c379a000000000000000000000000000000000000000000000000000000000815260040161083f90612442565b60405180910390fd5b61085585858585856110f7565b5050505050565b610864610c72565b600073ffffffffffffffffffffffffffffffffffffffff168173ffffffffffffffffffffffffffffffffffffffff16036108d3576040517f08c379a00000000000000000000000000000000000000000000000000000000081526004016108ca90612640565b60405180910390fd5b6108dc81610cf0565b50565b60007f01ffc9a7000000000000000000000000000000000000000000000000000000007bffffffffffffffffffffffffffffffffffffffffffffffffffffffff1916827bffffffffffffffffffffffffffffffffffffffffffffffffffffffff1916149050919050565b600033905090565b8151835114610995576040517f08c379a000000000000000000000000000000000000000000000000000000000815260040161098c906126d2565b60405180910390fd5b600073ffffffffffffffffffffffffffffffffffffffff168473ffffffffffffffffffffffffffffffffffffffff1603610a04576040517f08c379a00000000000000000000000000000000000000000000000000000000081526004016109fb90612764565b60405180910390fd5b6000610a0e610949565b9050610a1e818787878787611392565b60005b8451811015610bcf576000858281518110610a3f57610a3e6124f4565b5b602002602001015190506000858381518110610a5e57610a5d6124f4565b5b60200260200101519050600080600084815260200190815260200160002060008b73ffffffffffffffffffffffffffffffffffffffff1673ffffffffffffffffffffffffffffffffffffffff16815260200190815260200160002054905081811015610aff576040517f08c379a0000000000000000000000000000000000000000000000000000000008152600401610af6906127f6565b60405180910390fd5b81810360008085815260200190815260200160002060008c73ffffffffffffffffffffffffffffffffffffffff1673ffffffffffffffffffffffffffffffffffffffff168152602001908152602001600020819055508160008085815260200190815260200160002060008b73ffffffffffffffffffffffffffffffffffffffff1673ffffffffffffffffffffffffffffffffffffffff1681526020019081526020016000206000828254610bb4919061259a565b9250508190555050505080610bc890612552565b9050610a21565b508473ffffffffffffffffffffffffffffffffffffffff168673ffffffffffffffffffffffffffffffffffffffff168273ffffffffffffffffffffffffffffffffffffffff167f4a39dc06d4c0dbc64b70af90fd698a233a518aa5d07e595d983b8c0526c8f7fb8787604051610c46929190612816565b60405180910390a4610c5c81878787878761139a565b610c6a8187878787876113a2565b505050505050565b610c7a610949565b73ffffffffffffffffffffffffffffffffffffffff16610c98610682565b73ffffffffffffffffffffffffffffffffffffffff1614610cee576040517f08c379a0000000000000000000000000000000000000000000000000000000008152600401610ce590612899565b60405180910390fd5b565b6000600360009054906101000a900473ffffffffffffffffffffffffffffffffffffffff16905081600360006101000a81548173ffffffffffffffffffffffffffffffffffffffff021916908373ffffffffffffffffffffffffffffffffffffffff1602179055508173ffffffffffffffffffffffffffffffffffffffff168173ffffffffffffffffffffffffffffffffffffffff167f8be0079c531659141344cd1fd0a4f28419497f9722a3daafe3b4186f6b6457e060405160405180910390a35050565b8173ffffffffffffffffffffffffffffffffffffffff168373ffffffffffffffffffffffffffffffffffffffff1603610e24576040517f08c379a0000000000000000000000000000000000000000000000000000000008152600401610e1b9061292b565b60405180910390fd5b80600160008573ffffffffffffffffffffffffffffffffffffffff1673ffffffffffffffffffffffffffffffffffffffff16815260200190815260200160002060008473ffffffffffffffffffffffffffffffffffffffff1673ffffffffffffffffffffffffffffffffffffffff16815260200190815260200160002060006101000a81548160ff0219169083151502179055508173ffffffffffffffffffffffffffffffffffffffff168373ffffffffffffffffffffffffffffffffffffffff167f17307eab39ab6107e8899845ad3d59bd9653f200f220920489ca2b5937696c3183604051610f15919061199f565b60405180910390a3505050565b600073ffffffffffffffffffffffffffffffffffffffff168473ffffffffffffffffffffffffffffffffffffffff1603610f91576040517f08c379a0000000000000000000000000000000000000000000000000000000008152600401610f88906129bd565b60405180910390fd5b6000610f9b610949565b90506000610fa885611579565b90506000610fb585611579565b9050610fc683600089858589611392565b8460008088815260200190815260200160002060008973ffffffffffffffffffffffffffffffffffffffff1673ffffffffffffffffffffffffffffffffffffffff1681526020019081526020016000206000828254611025919061259a565b925050819055508673ffffffffffffffffffffffffffffffffffffffff16600073ffffffffffffffffffffffffffffffffffffffff168473ffffffffffffffffffffffffffffffffffffffff167fc3d58168c5ae7397731d063d5bbf3d657854427343f4c083240f7aacaa2d0f6289896040516110a39291906129dd565b60405180910390a46110ba8360008985858961139a565b6110c9836000898989896115f3565b50505050505050565b806005600084815260200190815260200160002090816110f29190612b9d565b505050565b600073ffffffffffffffffffffffffffffffffffffffff168473ffffffffffffffffffffffffffffffffffffffff1603611166576040517f08c379a000000000000000000000000000000000000000000000000000000000815260040161115d90612764565b60405180910390fd5b6000611170610949565b9050600061117d85611579565b9050600061118a85611579565b905061119a838989858589611392565b600080600088815260200190815260200160002060008a73ffffffffffffffffffffffffffffffffffffffff1673ffffffffffffffffffffffffffffffffffffffff16815260200190815260200160002054905085811015611231576040517f08c379a0000000000000000000000000000000000000000000000000000000008152600401611228906127f6565b60405180910390fd5b85810360008089815260200190815260200160002060008b73ffffffffffffffffffffffffffffffffffffffff1673ffffffffffffffffffffffffffffffffffffffff168152602001908152602001600020819055508560008089815260200190815260200160002060008a73ffffffffffffffffffffffffffffffffffffffff1673ffffffffffffffffffffffffffffffffffffffff16815260200190815260200160002060008282546112e6919061259a565b925050819055508773ffffffffffffffffffffffffffffffffffffffff168973ffffffffffffffffffffffffffffffffffffffff168573ffffffffffffffffffffffffffffffffffffffff167fc3d58168c5ae7397731d063d5bbf3d657854427343f4c083240f7aacaa2d0f628a8a6040516113639291906129dd565b60405180910390a4611379848a8a86868a61139a565b611387848a8a8a8a8a6115f3565b505050505050505050565b505050505050565b505050505050565b6113c18473ffffffffffffffffffffffffffffffffffffffff166117ca565b15611571578373ffffffffffffffffffffffffffffffffffffffff1663bc197c8187878686866040518663ffffffff1660e01b8152600401611407959493929190612cc4565b6020604051808303816000875af192505050801561144357506040513d601f19601f820116820180604052508101906114409190612d41565b60015b6114e85761144f612d7b565b806308c379a0036114ab5750611463612d9d565b8061146e57506114ad565b806040517f08c379a00000000000000000000000000000000000000000000000000000000081526004016114a29190611a77565b60405180910390fd5b505b6040517f08c379a00000000000000000000000000000000000000000000000000000000081526004016114df90612e9f565b60405180910390fd5b63bc197c8160e01b7bffffffffffffffffffffffffffffffffffffffffffffffffffffffff1916817bffffffffffffffffffffffffffffffffffffffffffffffffffffffff19161461156f576040517f08c379a000000000000000000000000000000000000000000000000000000000815260040161156690612f31565b60405180910390fd5b505b505050505050565b60606000600167ffffffffffffffff81111561159857611597611a9e565b5b6040519080825280602002602001820160405280156115c65781602001602082028036833780820191505090505b50905082816000815181106115de576115dd6124f4565b5b60200260200101818152505080915050919050565b6116128473ffffffffffffffffffffffffffffffffffffffff166117ca565b156117c2578373ffffffffffffffffffffffffffffffffffffffff1663f23a6e6187878686866040518663ffffffff1660e01b8152600401611658959493929190612f51565b6020604051808303816000875af192505050801561169457506040513d601f19601f820116820180604052508101906116919190612d41565b60015b611739576116a0612d7b565b806308c379a0036116fc57506116b4612d9d565b806116bf57506116fe565b806040517f08c379a00000000000000000000000000000000000000000000000000000000081526004016116f39190611a77565b60405180910390fd5b505b6040517f08c379a000000000000000000000000000000000000000000000000000000000815260040161173090612e9f565b60405180910390fd5b63f23a6e6160e01b7bffffffffffffffffffffffffffffffffffffffffffffffffffffffff1916817bffffffffffffffffffffffffffffffffffffffffffffffffffffffff1916146117c0576040517f08c379a00000000000000000000000000000000000000000000000000000000081526004016117b790612f31565b60405180910390fd5b505b505050505050565b6000808273ffffffffffffffffffffffffffffffffffffffff163b119050919050565b6000604051905090565b600080fd5b600080fd5b600073ffffffffffffffffffffffffffffffffffffffff82169050919050565b600061182c82611801565b9050919050565b61183c81611821565b811461184757600080fd5b50565b60008135905061185981611833565b92915050565b6000819050919050565b6118728161185f565b811461187d57600080fd5b50565b60008135905061188f81611869565b92915050565b600080604083850312156118ac576118ab6117f7565b5b60006118ba8582860161184a565b92505060206118cb85828601611880565b9150509250929050565b6118de8161185f565b82525050565b60006020820190506118f960008301846118d5565b92915050565b60007fffffffff0000000000000000000000000000000000000000000000000000000082169050919050565b611934816118ff565b811461193f57600080fd5b50565b6000813590506119518161192b565b92915050565b60006020828403121561196d5761196c6117f7565b5b600061197b84828501611942565b91505092915050565b60008115159050919050565b61199981611984565b82525050565b60006020820190506119b46000830184611990565b92915050565b6000602082840312156119d0576119cf6117f7565b5b60006119de84828501611880565b91505092915050565b600081519050919050565b600082825260208201905092915050565b60005b83811015611a21578082015181840152602081019050611a06565b60008484015250505050565b6000601f19601f8301169050919050565b6000611a49826119e7565b611a5381856119f2565b9350611a63818560208601611a03565b611a6c81611a2d565b840191505092915050565b60006020820190508181036000830152611a918184611a3e565b905092915050565b600080fd5b7f4e487b7100000000000000000000000000000000000000000000000000000000600052604160045260246000fd5b611ad682611a2d565b810181811067ffffffffffffffff82111715611af557611af4611a9e565b5b80604052505050565b6000611b086117ed565b9050611b148282611acd565b919050565b600067ffffffffffffffff821115611b3457611b33611a9e565b5b602082029050602081019050919050565b600080fd5b6000611b5d611b5884611b19565b611afe565b90508083825260208201905060208402830185811115611b8057611b7f611b45565b5b835b81811015611ba95780611b958882611880565b845260208401935050602081019050611b82565b5050509392505050565b600082601f830112611bc857611bc7611a99565b5b8135611bd8848260208601611b4a565b91505092915050565b600080fd5b600067ffffffffffffffff821115611c0157611c00611a9e565b5b611c0a82611a2d565b9050602081019050919050565b82818337600083830152505050565b6000611c39611c3484611be6565b611afe565b905082815260208101848484011115611c5557611c54611be1565b5b611c60848285611c17565b509392505050565b600082601f830112611c7d57611c7c611a99565b5b8135611c8d848260208601611c26565b91505092915050565b600080600080600060a08688031215611cb257611cb16117f7565b5b6000611cc08882890161184a565b9550506020611cd18882890161184a565b945050604086013567ffffffffffffffff811115611cf257611cf16117fc565b5b611cfe88828901611bb3565b935050606086013567ffffffffffffffff811115611d1f57611d1e6117fc565b5b611d2b88828901611bb3565b925050608086013567ffffffffffffffff811115611d4c57611d4b6117fc565b5b611d5888828901611c68565b9150509295509295909350565b600067ffffffffffffffff821115611d8057611d7f611a9e565b5b602082029050602081019050919050565b6000611da4611d9f84611d65565b611afe565b90508083825260208201905060208402830185811115611dc757611dc6611b45565b5b835b81811015611df05780611ddc888261184a565b845260208401935050602081019050611dc9565b5050509392505050565b600082601f830112611e0f57611e0e611a99565b5b8135611e1f848260208601611d91565b91505092915050565b60008060408385031215611e3f57611e3e6117f7565b5b600083013567ffffffffffffffff811115611e5d57611e5c6117fc565b5b611e6985828601611dfa565b925050602083013567ffffffffffffffff811115611e8a57611e896117fc565b5b611e9685828601611bb3565b9150509250929050565b600081519050919050565b600082825260208201905092915050565b6000819050602082019050919050565b611ed58161185f565b82525050565b6000611ee78383611ecc565b60208301905092915050565b6000602082019050919050565b6000611f0b82611ea0565b611f158185611eab565b9350611f2083611ebc565b8060005b83811015611f51578151611f388882611edb565b9750611f4383611ef3565b925050600181019050611f24565b5085935050505092915050565b60006020820190508181036000830152611f788184611f00565b905092915050565b611f8981611821565b82525050565b6000602082019050611fa46000830184611f80565b92915050565b611fb381611984565b8114611fbe57600080fd5b50565b600081359050611fd081611faa565b92915050565b60008060408385031215611fed57611fec6117f7565b5b6000611ffb8582860161184a565b925050602061200c85828601611fc1565b9150509250929050565b60006020828403121561202c5761202b6117f7565b5b600061203a8482850161184a565b91505092915050565b600067ffffffffffffffff82111561205e5761205d611a9e565b5b61206782611a2d565b9050602081019050919050565b600061208761208284612043565b611afe565b9050828152602081018484840111156120a3576120a2611be1565b5b6120ae848285611c17565b509392505050565b600082601f8301126120cb576120ca611a99565b5b81356120db848260208601612074565b91505092915050565b600080604083850312156120fb576120fa6117f7565b5b60006121098582860161184a565b925050602083013567ffffffffffffffff81111561212a576121296117fc565b5b612136858286016120b6565b9150509250929050565b60008060408385031215612157576121566117f7565b5b60006121658582860161184a565b92505060206121768582860161184a565b9150509250929050565b600080600080600060a0868803121561219c5761219b6117f7565b5b60006121aa8882890161184a565b95505060206121bb8882890161184a565b94505060406121cc88828901611880565b93505060606121dd88828901611880565b925050608086013567ffffffffffffffff8111156121fe576121fd6117fc565b5b61220a88828901611c68565b9150509295509295909350565b7f455243313135353a2061646472657373207a65726f206973206e6f742061207660008201527f616c6964206f776e657200000000000000000000000000000000000000000000602082015250565b6000612273602a836119f2565b915061227e82612217565b604082019050919050565b600060208201905081810360008301526122a281612266565b9050919050565b7f4e487b7100000000000000000000000000000000000000000000000000000000600052602260045260246000fd5b600060028204905060018216806122f057607f821691505b602082108103612303576123026122a9565b5b50919050565b600081905092915050565b60008190508160005260206000209050919050565b60008154612336816122d8565b6123408186612309565b9450600182166000811461235b5760018114612370576123a3565b60ff19831686528115158202860193506123a3565b61237985612314565b60005b8381101561239b5781548189015260018201915060208101905061237c565b838801955050505b50505092915050565b60006123b88285612329565b91506123c48284612329565b91508190509392505050565b7f455243313135353a2063616c6c6572206973206e6f7420746f6b656e206f776e60008201527f6572206f7220617070726f766564000000000000000000000000000000000000602082015250565b600061242c602e836119f2565b9150612437826123d0565b604082019050919050565b6000602082019050818103600083015261245b8161241f565b9050919050565b7f455243313135353a206163636f756e747320616e6420696473206c656e67746860008201527f206d69736d617463680000000000000000000000000000000000000000000000602082015250565b60006124be6029836119f2565b91506124c982612462565b604082019050919050565b600060208201905081810360008301526124ed816124b1565b9050919050565b7f4e487b7100000000000000000000000000000000000000000000000000000000600052603260045260246000fd5b7f4e487b7100000000000000000000000000000000000000000000000000000000600052601160045260246000fd5b600061255d8261185f565b91507fffffffffffffffffffffffffffffffffffffffffffffffffffffffffffffffff820361258f5761258e612523565b5b600182019050919050565b60006125a58261185f565b91506125b08361185f565b92508282019050808211156125c8576125c7612523565b5b92915050565b7f4f776e61626c653a206e6577206f776e657220697320746865207a65726f206160008201527f6464726573730000000000000000000000000000000000000000000000000000602082015250565b600061262a6026836119f2565b9150612635826125ce565b604082019050919050565b600060208201905081810360008301526126598161261d565b9050919050565b7f455243313135353a2069647320616e6420616d6f756e7473206c656e6774682060008201527f6d69736d61746368000000000000000000000000000000000000000000000000602082015250565b60006126bc6028836119f2565b91506126c782612660565b604082019050919050565b600060208201905081810360008301526126eb816126af565b9050919050565b7f455243313135353a207472616e7366657220746f20746865207a65726f20616460008201527f6472657373000000000000000000000000000000000000000000000000000000602082015250565b600061274e6025836119f2565b9150612759826126f2565b604082019050919050565b6000602082019050818103600083015261277d81612741565b9050919050565b7f455243313135353a20696e73756666696369656e742062616c616e636520666f60008201527f72207472616e7366657200000000000000000000000000000000000000000000602082015250565b60006127e0602a836119f2565b91506127eb82612784565b604082019050919050565b6000602082019050818103600083015261280f816127d3565b9050919050565b600060408201905081810360008301526128308185611f00565b905081810360208301526128448184611f00565b90509392505050565b7f4f776e61626c653a2063616c6c6572206973206e6f7420746865206f776e6572600082015250565b60006128836020836119f2565b915061288e8261284d565b602082019050919050565b600060208201905081810360008301526128b281612876565b9050919050565b7f455243313135353a2073657474696e6720617070726f76616c2073746174757360008201527f20666f722073656c660000000000000000000000000000000000000000000000602082015250565b60006129156029836119f2565b9150612920826128b9565b604082019050919050565b6000602082019050818103600083015261294481612908565b9050919050565b7f455243313135353a206d696e7420746f20746865207a65726f2061646472657360008201527f7300000000000000000000000000000000000000000000000000000000000000602082015250565b60006129a76021836119f2565b91506129b28261294b565b604082019050919050565b600060208201905081810360008301526129d68161299a565b9050919050565b60006040820190506129f260008301856118d5565b6129ff60208301846118d5565b9392505050565b60006020601f8301049050919050565b600082821b905092915050565b600060088302612a537fffffffffffffffffffffffffffffffffffffffffffffffffffffffffffffffff82612a16565b612a5d8683612a16565b95508019841693508086168417925050509392505050565b6000819050919050565b6000612a9a612a95612a908461185f565b612a75565b61185f565b9050919050565b6000819050919050565b612ab483612a7f565b612ac8612ac082612aa1565b848454612a23565b825550505050565b600090565b612add612ad0565b612ae8818484612aab565b505050565b5b81811015612b0c57612b01600082612ad5565b600181019050612aee565b5050565b601f821115612b5157612b2281612314565b612b2b84612a06565b81016020851015612b3a578190505b612b4e612b4685612a06565b830182612aed565b50505b505050565b600082821c905092915050565b6000612b7460001984600802612b56565b1980831691505092915050565b6000612b8d8383612b63565b9150826002028217905092915050565b612ba6826119e7565b67ffffffffffffffff811115612bbf57612bbe611a9e565b5b612bc982546122d8565b612bd4828285612b10565b600060209050601f831160018114612c075760008415612bf5578287015190505b612bff8582612b81565b865550612c67565b601f198416612c1586612314565b60005b82811015612c3d57848901518255600182019150602085019450602081019050612c18565b86831015612c5a5784890151612c56601f891682612b63565b8355505b6001600288020188555050505b505050505050565b600081519050919050565b600082825260208201905092915050565b6000612c9682612c6f565b612ca08185612c7a565b9350612cb0818560208601611a03565b612cb981611a2d565b840191505092915050565b600060a082019050612cd96000830188611f80565b612ce66020830187611f80565b8181036040830152612cf88186611f00565b90508181036060830152612d0c8185611f00565b90508181036080830152612d208184612c8b565b90509695505050505050565b600081519050612d3b8161192b565b92915050565b600060208284031215612d5757612d566117f7565b5b6000612d6584828501612d2c565b91505092915050565b60008160e01c9050919050565b600060033d1115612d9a5760046000803e612d97600051612d6e565b90505b90565b600060443d10612e2a57612daf6117ed565b60043d036004823e80513d602482011167ffffffffffffffff82111715612dd7575050612e2a565b808201805167ffffffffffffffff811115612df55750505050612e2a565b80602083010160043d038501811115612e12575050505050612e2a565b612e2182602001850186611acd565b82955050505050505b90565b7f455243313135353a207472616e7366657220746f206e6f6e2d4552433131353560008201527f526563656976657220696d706c656d656e746572000000000000000000000000602082015250565b6000612e896034836119f2565b9150612e9482612e2d565b604082019050919050565b60006020820190508181036000830152612eb881612e7c565b9050919050565b7f455243313135353a204552433131353552656365697665722072656a6563746560008201527f6420746f6b656e73000000000000000000000000000000000000000000000000602082015250565b6000612f1b6028836119f2565b9150612f2682612ebf565b604082019050919050565b60006020820190508181036000830152612f4a81612f0e565b9050919050565b600060a082019050612f666000830188611f80565b612f736020830187611f80565b612f8060408301866118d5565b612f8d60608301856118d5565b8181036080830152612f9f8184612c8b565b9050969550505050505056fea2646970667358221220cfceaab71cae5d7ddad092e1ca5ebb4ba5d8284d7a936c4486d5744216624c6b64736f6c63430008120033",
  "linkReferences": {},
  "deployedLinkReferences": {}
}